{
  "contractName": "KYC",
  "abi": [
    {
      "inputs": [],
      "stateMutability": "nonpayable",
      "type": "constructor"
    },
    {
      "anonymous": false,
      "inputs": [
        {
          "indexed": false,
          "internalType": "address",
          "name": "id_",
          "type": "address"
        },
        {
          "indexed": false,
          "internalType": "string",
          "name": "name",
          "type": "string"
        }
      ],
      "name": "BankActivated",
      "type": "event"
    },
    {
      "anonymous": false,
      "inputs": [
        {
          "indexed": false,
          "internalType": "address",
          "name": "id_",
          "type": "address"
        },
        {
          "indexed": false,
          "internalType": "string",
          "name": "name",
          "type": "string"
        },
        {
          "indexed": false,
          "internalType": "string",
          "name": "email",
          "type": "string"
        },
        {
          "indexed": false,
          "internalType": "string",
          "name": "ifscCode",
          "type": "string"
        }
      ],
      "name": "BankAdded",
      "type": "event"
    },
    {
      "anonymous": false,
      "inputs": [
        {
          "indexed": false,
          "internalType": "address",
          "name": "id_",
          "type": "address"
        },
        {
          "indexed": false,
          "internalType": "string",
          "name": "name",
          "type": "string"
        }
      ],
      "name": "BankDeactivated",
      "type": "event"
    },
    {
      "anonymous": false,
      "inputs": [
        {
          "indexed": false,
          "internalType": "address",
          "name": "id_",
          "type": "address"
        },
        {
          "indexed": false,
          "internalType": "string",
          "name": "name",
          "type": "string"
        },
        {
          "indexed": false,
          "internalType": "string",
          "name": "email",
          "type": "string"
        }
      ],
      "name": "BankUpdated",
      "type": "event"
    },
    {
      "anonymous": false,
      "inputs": [
        {
          "indexed": false,
          "internalType": "address",
          "name": "id_",
          "type": "address"
        },
        {
          "indexed": false,
          "internalType": "string",
          "name": "name",
          "type": "string"
        },
        {
          "indexed": false,
          "internalType": "string",
          "name": "email",
          "type": "string"
        }
      ],
      "name": "CustomerAdded",
      "type": "event"
    },
    {
      "anonymous": false,
      "inputs": [
        {
          "indexed": false,
          "internalType": "address",
          "name": "id_",
          "type": "address"
        },
        {
          "indexed": false,
          "internalType": "string",
          "name": "name",
          "type": "string"
        },
        {
          "indexed": false,
          "internalType": "string",
          "name": "email",
          "type": "string"
        }
      ],
      "name": "CustomerDataUpdated",
      "type": "event"
    },
    {
      "anonymous": false,
      "inputs": [
        {
          "indexed": false,
          "internalType": "address",
          "name": "id_",
          "type": "address"
        },
        {
          "indexed": false,
          "internalType": "string",
          "name": "customerName",
          "type": "string"
        },
        {
          "indexed": false,
          "internalType": "string",
          "name": "dataHash",
          "type": "string"
        }
      ],
      "name": "DataHashUpdated",
      "type": "event"
    },
    {
      "anonymous": false,
      "inputs": [
        {
          "indexed": false,
          "internalType": "string",
          "name": "reqId",
          "type": "string"
        },
        {
          "indexed": false,
          "internalType": "string",
          "name": "bankName",
          "type": "string"
        },
        {
          "indexed": false,
          "internalType": "string",
          "name": "customerName",
          "type": "string"
        }
      ],
      "name": "KycReRequested",
      "type": "event"
    },
    {
      "anonymous": false,
      "inputs": [
        {
          "indexed": false,
          "internalType": "string",
          "name": "reqId",
          "type": "string"
        },
        {
          "indexed": false,
          "internalType": "string",
          "name": "bankName",
          "type": "string"
        },
        {
          "indexed": false,
          "internalType": "string",
          "name": "customerName",
          "type": "string"
        }
      ],
      "name": "KycRequestAdded",
      "type": "event"
    },
    {
      "anonymous": false,
      "inputs": [
        {
          "indexed": false,
          "internalType": "string",
          "name": "reqId",
          "type": "string"
        },
        {
          "indexed": false,
          "internalType": "address",
          "name": "customerId",
          "type": "address"
        },
        {
          "indexed": false,
          "internalType": "address",
          "name": "bankId",
          "type": "address"
        },
        {
          "indexed": false,
          "internalType": "uint256",
          "name": "status",
          "type": "uint256"
        }
      ],
      "name": "KycStatusChanged",
      "type": "event"
    },
    {
      "inputs": [
        {
          "components": [
            {
              "internalType": "string",
              "name": "name",
              "type": "string"
            },
            {
              "internalType": "string",
              "name": "email",
              "type": "string"
            },
            {
              "internalType": "string",
              "name": "ifscCode",
              "type": "string"
            },
            {
              "internalType": "string",
              "name": "address_",
              "type": "string"
            },
            {
              "internalType": "address",
              "name": "id_",
              "type": "address"
            },
            {
              "internalType": "uint16",
              "name": "kycCount",
              "type": "uint16"
            },
            {
              "internalType": "uint256",
              "name": "status",
              "type": "uint256"
            }
          ],
          "internalType": "struct Types.Bank",
          "name": "bank_",
          "type": "tuple"
        }
      ],
      "name": "addBank_",
      "outputs": [],
      "stateMutability": "nonpayable",
      "type": "function"
    },
    {
      "inputs": [
        {
          "internalType": "address",
          "name": "cid",
          "type": "address"
        }
      ],
      "name": "customerKycExists",
      "outputs": [
        {
          "internalType": "bool",
          "name": "",
          "type": "bool"
        }
      ],
      "stateMutability": "view",
      "type": "function",
      "constant": true
    },
    {
      "inputs": [
        {
          "components": [
            {
              "internalType": "string",
              "name": "name",
              "type": "string"
            },
            {
              "internalType": "string",
              "name": "email",
              "type": "string"
            },
            {
              "internalType": "uint256",
              "name": "mobileNumber",
              "type": "uint256"
            },
            {
              "internalType": "address",
              "name": "id_",
              "type": "address"
            },
            {
              "internalType": "address",
              "name": "kycVerifiedBy",
              "type": "address"
            },
            {
              "internalType": "string",
              "name": "dataHash",
              "type": "string"
            },
            {
              "internalType": "uint256",
              "name": "dataUpdatedOn",
              "type": "uint256"
            }
          ],
          "internalType": "struct Types.Customer",
          "name": "customer_",
          "type": "tuple"
        }
      ],
      "name": "addCustomer_",
      "outputs": [],
      "stateMutability": "nonpayable",
      "type": "function"
    },
    {
      "inputs": [
        {
          "components": [
            {
              "internalType": "bool",
              "name": "isExists",
              "type": "bool"
            },
            {
              "internalType": "string",
              "name": "id_",
              "type": "string"
            },
            {
              "internalType": "address",
              "name": "userId_",
              "type": "address"
            },
            {
              "internalType": "string",
              "name": "customerName",
              "type": "string"
            },
            {
              "internalType": "address",
              "name": "bankId_",
              "type": "address"
            },
            {
              "internalType": "string",
              "name": "bankName",
              "type": "string"
            },
            {
              "internalType": "string[]",
              "name": "dataHash",
              "type": "string[]"
            },
            {
              "internalType": "uint256",
              "name": "updatedOn",
              "type": "uint256"
            },
            {
              "internalType": "uint256",
              "name": "status",
              "type": "uint256"
            },
            {
              "internalType": "uint256",
              "name": "dataRequest",
              "type": "uint256"
            },
            {
              "internalType": "string",
              "name": "additionalNotes",
              "type": "string"
            }
          ],
          "internalType": "struct Types.KycRequest",
          "name": "kycr",
          "type": "tuple"
        }
      ],
      "name": "addKycRequest",
      "outputs": [],
      "stateMutability": "nonpayable",
      "type": "function"
    },
    {
      "inputs": [
        {
          "internalType": "string",
          "name": "kyc_id",
          "type": "string"
        },
        {
          "internalType": "uint256",
          "name": "action",
          "type": "uint256"
        }
      ],
      "name": "actionOnKycRequest",
      "outputs": [],
      "stateMutability": "nonpayable",
      "type": "function"
    },
    {
      "inputs": [
        {
          "internalType": "address",
          "name": "bankid",
          "type": "address"
        },
        {
          "internalType": "address",
          "name": "customerid",
          "type": "address"
        },
        {
          "internalType": "uint256",
          "name": "action",
          "type": "uint256"
        }
      ],
      "name": "handleKyc",
      "outputs": [],
      "stateMutability": "nonpayable",
      "type": "function"
    }
  ],
  "bytecode": "0x608060405234801561001057600080fd5b50600480546001600160a01b031916331790556112a2806100326000396000f3fe608060405234801561001057600080fd5b50600436106100625760003560e01c80631a3a23b3146100675780635e66f8891461007c578063ba70a09f146100a3578063bbeae49d146100b6578063c894ddfe146100c9578063dc11299e146100dc575b600080fd5b61007a610075366004610ecc565b6100ef565b005b61008f61008a366004610c33565b610333565b604051901515815260200160405180910390f35b61007a6100b1366004610dde565b610367565b61007a6100c4366004610c91565b6104cf565b61007a6100d7366004610c55565b6105cc565b61007a6100ea366004610cd6565b610646565b6101b560058260200151604051610106919061104d565b908152602001604051809103902060010180546101229061121b565b80601f016020809104026020016040519081016040528092919081815260200182805461014e9061121b565b801561019b5780601f106101705761010080835404028352916020019161019b565b820191906000526020600020905b81548152906001019060200180831161017e57829003601f168201915b5050505050604051806020016040528060008152506106a1565b156103305780600582602001516040516101cf919061104d565b908152604051602091819003820190208251815460ff1916901515178155828201518051919261020792600185019290910190610998565b5060408201516002820180546001600160a01b0319166001600160a01b0390921691909117905560608201518051610249916003840191602090910190610998565b5060808201516004820180546001600160a01b0319166001600160a01b0390921691909117905560a0820151805161028b916005840191602090910190610998565b5060c082015180516102a7916006840191602090910190610a1c565b5060e082015160078201556101008201516008820155610120820151600982015561014082015180516102e491600a840191602090910190610998565b509050507f1c9ca7942139211bfb75ec030ee95c38e96f4eb7d755b28d3eede55f8d5eb86d81602001518260a00151836060015160405161032793929190611134565b60405180910390a15b50565b6001600160a01b0381811660009081526001602052604081206004015490911661035f57506001919050565b506000919050565b33600090815260036020526040902060050154156104355760405162461bcd60e51b815260206004820152607460248201527f4e6f7420616c6c6f77656420746f2061646420637573746f6d65722e506c656160448201527f736520636f6e746163742041646d696e2e526561736f6e7320666f722074686960648201527f7320656974686572206e6f742076616c69642062616e6b206f7220646561637460848201527334bb30ba32b210313c903a34329020b236b4b71760611b60a482015260c4015b60405180910390fd5b60608101516001600160a01b039081166000908152600160205260409020600301541661046557610465816106fa565b336000818152600660209081526040808320606090950180518654600181810189559786528486200180546001600160a01b039283166001600160a01b03199182161790915591511684526007835290832080549586018155835291209092018054909216179055565b600281106105115760405162461bcd60e51b815260206004820152600f60248201526e24b73b30b634b21037b83a34b7b71760891b604482015260640161042c565b80600583604051610522919061104d565b9081526020016040518091039020600801819055507fa647e03404820593d0b17edec45fa8075afc122257a98da3300a392495efef5282600584604051610569919061104d565b908152604051908190036020018120600401546001600160a01b03169060059061059490879061104d565b908152604051908190036020018120600201546105c09392916001600160a01b039091169086906110fe565b60405180910390a15050565b600281106106125760405162461bcd60e51b81526020600482015260136024820152722727ba1030903b30b634b21030b1ba34b7b71760691b604482015260640161042c565b506001600160a01b0390811660009081526001602052604090206004018054919092166001600160a01b0319909116179055565b6004546001600160a01b031633146106985760405162461bcd60e51b815260206004820152601560248201527413db9b1e4818591b5a5b881a5cc8185b1b1bddd959605a1b604482015260640161042c565b61033081610840565b6000816040516020016106b4919061104d565b60405160208183030381529060405280519060200120836040516020016106db919061104d565b6040516020818303038152906040528051906020012014905092915050565b60608101516001600160a01b0316600090815260016020908152604090912082518051849361072d928492910190610998565b5060208281015180516107469260018501920190610998565b506040820151600282015560608201516003820180546001600160a01b039283166001600160a01b031991821617909155608084015160048401805491909316911617905560a082015180516107a6916005840191602090910190610998565b5060c09190910151600690910155606081018051600080546001810182559080527f290decd9548b62a8d60345a988386fc84ba6bc95484008f6362f93160ef3e5630180546001600160a01b0319166001600160a01b0390921691909117905551815160208301516040517f77eacb4962819f791ebd2750d7be9519622ddcf4c37fe09c6fd33ace5ce32ccb936103279390929091611069565b60808101516001600160a01b03166000908152600360209081526040909120825180518493610873928492910190610998565b50602082810151805161088c9260018501920190610998565b50604082015180516108a8916002840191602090910190610998565b50606082015180516108c4916003840191602090910190610998565b5060808281015160048301805460a086015161ffff16600160a01b026001600160b01b03199091166001600160a01b039384161717905560c09093015160059092019190915582018051600280546001810182556000919091527f405787fa12a823e0f2b7631cc41b3ba8828b3321ca811111fa75cd3aa3bb5ace018054919093166001600160a01b03199190911617909155518151602083015160408085015190517f17ee33cc6a54067d735ee1c9200fc0dc8354b1d7deae9908692bcd90723044b194610327949093909290916110a9565b8280546109a49061121b565b90600052602060002090601f0160209004810192826109c65760008555610a0c565b82601f106109df57805160ff1916838001178555610a0c565b82800160010185558215610a0c579182015b82811115610a0c5782518255916020019190600101906109f1565b50610a18929150610a75565b5090565b828054828255906000526020600020908101928215610a69579160200282015b82811115610a695782518051610a59918491602090910190610998565b5091602001919060010190610a3c565b50610a18929150610a8a565b5b80821115610a185760008155600101610a76565b80821115610a18576000610a9e8282610aa7565b50600101610a8a565b508054610ab39061121b565b6000825580601f10610ac3575050565b601f0160209004906000526020600020908101906103309190610a75565b80356001600160a01b0381168114610af857600080fd5b919050565b600082601f830112610b0e57600080fd5b8135602067ffffffffffffffff80831115610b2b57610b2b611256565b8260051b610b3a8382016111ba565b8481528381019087850183890186018a1015610b5557600080fd5b60009350835b87811015610b9257813586811115610b71578586fd5b610b7f8c89838e0101610bb1565b8552509286019290860190600101610b5b565b50909998505050505050505050565b80358015158114610af857600080fd5b600082601f830112610bc257600080fd5b813567ffffffffffffffff811115610bdc57610bdc611256565b610bef601f8201601f19166020016111ba565b818152846020838601011115610c0457600080fd5b816020850160208301376000918101602001919091529392505050565b803561ffff81168114610af857600080fd5b600060208284031215610c4557600080fd5b610c4e82610ae1565b9392505050565b600080600060608486031215610c6a57600080fd5b610c7384610ae1565b9250610c8160208501610ae1565b9150604084013590509250925092565b60008060408385031215610ca457600080fd5b823567ffffffffffffffff811115610cbb57600080fd5b610cc785828601610bb1565b95602094909401359450505050565b600060208284031215610ce857600080fd5b813567ffffffffffffffff80821115610d0057600080fd5b9083019060e08286031215610d1457600080fd5b610d1c61116d565b823582811115610d2b57600080fd5b610d3787828601610bb1565b825250602083013582811115610d4c57600080fd5b610d5887828601610bb1565b602083015250604083013582811115610d7057600080fd5b610d7c87828601610bb1565b604083015250606083013582811115610d9457600080fd5b610da087828601610bb1565b606083015250610db260808401610ae1565b6080820152610dc360a08401610c21565b60a082015260c083013560c082015280935050505092915050565b600060208284031215610df057600080fd5b813567ffffffffffffffff80821115610e0857600080fd5b9083019060e08286031215610e1c57600080fd5b610e2461116d565b823582811115610e3357600080fd5b610e3f87828601610bb1565b825250602083013582811115610e5457600080fd5b610e6087828601610bb1565b60208301525060408301356040820152610e7c60608401610ae1565b6060820152610e8d60808401610ae1565b608082015260a083013582811115610ea457600080fd5b610eb087828601610bb1565b60a08301525060c083013560c082015280935050505092915050565b600060208284031215610ede57600080fd5b813567ffffffffffffffff80821115610ef657600080fd5b908301906101608286031215610f0b57600080fd5b610f13611196565b610f1c83610ba1565b8152602083013582811115610f3057600080fd5b610f3c87828601610bb1565b602083015250610f4e60408401610ae1565b6040820152606083013582811115610f6557600080fd5b610f7187828601610bb1565b606083015250610f8360808401610ae1565b608082015260a083013582811115610f9a57600080fd5b610fa687828601610bb1565b60a08301525060c083013582811115610fbe57600080fd5b610fca87828601610afd565b60c08301525060e0838101359082015261010080840135908201526101208084013590820152610140808401358381111561100457600080fd5b61101088828701610bb1565b918301919091525095945050505050565b600081518084526110398160208601602086016111eb565b601f01601f19169290920160200192915050565b6000825161105f8184602087016111eb565b9190910192915050565b6001600160a01b038416815260606020820181905260009061108d90830185611021565b828103604084015261109f8185611021565b9695505050505050565b6001600160a01b03851681526080602082018190526000906110cd90830186611021565b82810360408401526110df8186611021565b905082810360608401526110f38185611021565b979650505050505050565b6080815260006111116080830187611021565b6001600160a01b0395861660208401529390941660408201526060015292915050565b6060815260006111476060830186611021565b82810360208401526111598186611021565b9050828103604084015261109f8185611021565b60405160e0810167ffffffffffffffff8111828210171561119057611190611256565b60405290565b604051610160810167ffffffffffffffff8111828210171561119057611190611256565b604051601f8201601f1916810167ffffffffffffffff811182821017156111e3576111e3611256565b604052919050565b60005b838110156112065781810151838201526020016111ee565b83811115611215576000848401525b50505050565b600181811c9082168061122f57607f821691505b6020821081141561125057634e487b7160e01b600052602260045260246000fd5b50919050565b634e487b7160e01b600052604160045260246000fdfea2646970667358221220f826241dec3c28ce2d735e6df0c2b531cb9649c5a46263fb89a1d54dd10715a664736f6c63430008070033",
  "immutableReferences": {},
  "source": "// SPDX-License-Identifier: MIT\r\npragma experimental ABIEncoderV2;\r\npragma solidity >=0.4.25 <0.9.0;\r\n\r\n// import \"./Types.sol\";\r\nimport \"./Customer.sol\";\r\nimport \"./Bank.sol\";\r\nimport \"./UtilityFunc.sol\";\r\n\r\ncontract KYC is Customer, Banks{\r\n    \r\n    address admin;\r\n    //mapping(address => Types.User) internal users;\r\n    mapping(string => Types.KycRequest) internal kycRequests;\r\n    mapping(address => address[]) internal bankCustomers; // All customers associated to a Bank\r\n    mapping(address => address[]) internal customerbanks; // All banks associated to a Customer\r\n\r\n\r\n    constructor() {\r\n        admin = msg.sender;\r\n    }\r\n    modifier isAdmin() {\r\n        require(msg.sender == admin, \"Only admin is allowed\");\r\n        _;\r\n    }\r\n    function addBank_(Types.Bank memory bank_) public isAdmin {\r\n        addBank(bank_);\r\n    }\r\n    function customerKycExists(address cid)public view returns(bool){\r\n        if(customers[cid].kycVerifiedBy == address(0))\r\n            return true;\r\n        return false;\r\n    }\r\n    function addCustomer_(Types.Customer memory customer_) public {\r\n        require(banks[msg.sender].status == 0, \"Not allowed to add customer.Please contact Admin.Reasons for this either not valid bank or deactivated by the Admin.\");\r\n        if(customers[customer_.id_].id_ == address(0)){\r\n            addCustomer(customer_);\r\n            // handleKyc(msg.sender,customer_.id_,0);\r\n        }\r\n        bankCustomers[msg.sender].push(customer_.id_);\r\n        customerbanks[customer_.id_].push(msg.sender);\r\n        // kycRequests    \r\n    }\r\n    // Events for KYC\r\n    // event when kyc will be added\r\n    event KycRequestAdded(string reqId, string bankName, string customerName);\r\n    // event when kyc will be rerequested \r\n    event KycReRequested(string reqId, string bankName, string customerName);\r\n    // event when the status of the kyc will be changed\r\n    event KycStatusChanged(string reqId,address customerId, address bankId, uint status);\r\n    //\r\n\r\n    function addKycRequest(Types.KycRequest memory kycr) public {\r\n        if(UtilityFunc.areEqual(kycRequests[kycr.id_].id_,\"\")){\r\n            kycRequests[kycr.id_] = kycr;\r\n            emit KycRequestAdded(kycr.id_, kycr.bankName, kycr.customerName);\r\n        }\r\n    }\r\n    \r\n    // function isKycRequestExists(address customerid, address bankid) public view returns(bool){\r\n    //     string memory id = UtilityFunc.append(customerid,bankid);\r\n    //     if(!kycRequests[id].isExists)\r\n    //         return false;\r\n    //     return true;\r\n    // }\r\n    function actionOnKycRequest(string memory kyc_id, uint action) public {\r\n        require(action < 2 , \"Invalid option.\");\r\n        kycRequests[kyc_id].status = action;\r\n        emit KycStatusChanged(kyc_id,kycRequests[kyc_id].bankId_,kycRequests[kyc_id].userId_,action);\r\n    }\r\n    function handleKyc(address bankid, address customerid, uint action)public{\r\n        require(action < 2 ,\"NOt a valid action.\");\r\n        // string memory id = UtilityFunc.append(bankid,customerid);\r\n\r\n        customers[customerid].kycVerifiedBy = bankid; \r\n    }\r\n\r\n}",
  "sourcePath": "D:\\Blockchain_project\\blockchainKYC\\contracts\\KYC.sol",
  "compiler": {
    "name": "solc",
    "version": "0.8.7+commit.e28d00a7.Emscripten.clang"
  },
  "schemaVersion": "3.4.10",
  "updatedAt": "2022-10-25T14:58:25.379Z",
  "networkType": "ethereum",
  "devdoc": {
    "kind": "dev",
    "methods": {},
    "version": 1
  },
  "userdoc": {
    "kind": "user",
    "methods": {},
    "version": 1
  }
}